:100000001DC037C036C035C076C433C032C031C021
:1000100030C02FC02EC02DC02CC02BC02AC0BAC1EA
:10002000DCC1FEC11FC241C263C285C2A7C2C9C230
:10003000EBC20DC32FC350C371C393C311241FBEA2
:10004000CFE5D2E0DEBFCDBF10E0A0E6B0E0E4E552
:10005000FBE002C005900D92A836B107D9F720E069
:10006000A8E6B0E001C01D92A037B207E1F768D45E
:100070006FC5C6CF12BE88E689BD089512BE19BCF1
:100080000895F8DF8FE594E00197F1F700C00000D4
:10009000F5DF8FE19DE00197F1F700C000000895C2
:1000A000E9DF8FE594E00197F1F700C00000E6DF9B
:1000B0008FE594E00197F1F700C0000008956F927A
:1000C0007F928F929F92AF92BF92CF92DF92EF92E8
:1000D000FF920F931F93CF93DF93C22F832E942E03
:1000E000E52EF62ED72F682E792E6801A12CB12C83
:1000F00024C02C2F217030E040E050E060E070E040
:1001000080E090E0A0E018D511F0BBDF01C0C8DFAF
:100110002C2F382D492D5E2D6F2D7D2F862D972D5F
:1001200001E0EED4C22F832E942EE52EF62ED72F8B
:10013000682E792E8FEFA81AB80AAC14BD04CCF241
:10014000DF91CF911F910F91FF90EF90DF90CF90B3
:10015000BF90AF909F908F907F906F9008958ADFAF
:100160008FE396E40197F1F700C0000087DF8FE18D
:1001700093E20197F1F700C0000008952F923F929B
:100180004F925F926F927F928F929F92AF92BF92A7
:10019000CF92DF92EF92FF920F931F93CF93DF9353
:1001A00000D000D0CDB7DEB7222E332E442E552EF0
:1001B000662E772E89839A830B831C83840187B3F1
:1001C000816087BBCCDF222D332D442D552D662D2C
:1001D000772D89819A8173DF4DDF8FE594E0019758
:1001E000F1F700C000004ADF8BE591EA0197F1F7D3
:1001F00000C000003FDF8FE594E00197F1F700C0F9
:1002000000003CDF8FE19DE00197F1F700C00000A6
:10021000098D1A8D2A2D3B2D4C2D5D2D6E2D7F2D98
:100220008B819C814CDF26DF8FE594E00197F1F70D
:1002300000C0000023DF87B38E7F87BB0F900F9035
:100240000F900F90DF91CF911F910F91FF90EF9042
:10025000DF90CF90BF90AF909F908F907F906F90E6
:100260005F904F903F902F9008956F927F928F9262
:100270009F92AF92BF92CF92DF92EF92FF920F9335
:100280001F93CF93DF937C014B018A01390187B320
:10029000816087BB64DFC7012E2D392F40E050E01D
:1002A00060E070E080E090E00ADF8301282D392DC6
:1002B00040E050E060E070E080E090E000DFDADEF7
:1002C0008FE594E00197F1F700C00000D7DE97EECC
:1002D00022E081E0915020408040E1F700C0000022
:1002E000C9DE8FE396E40197F1F700C00000C6DE97
:1002F00083E991E10197F1F700C00000BBDE8FE5D3
:1003000094E00197F1F700C00000B8DE94ED29E514
:1003100082E0915020408040E1F700C0ABDE8FE3E7
:1003200096E40197F1F700C00000A8DE83E991E1AF
:100330000197F1F700C000009DDE83E694E001978D
:10034000F1F700C000009ADE87B38E7F87BBDF9194
:10035000CF911F910F91FF90EF90DF90CF90BF90C2
:10036000AF909F908F907F906F9008958F929F9203
:10037000AF92BF92CF92DF92EF92FF920F931F93B3
:1003800090E0FC017097EF30F10508F00BC2E15FDF
:10039000FF4F09941F928FE18F930F2EF3E28F2E60
:1003A000912CF02D6894AA24A3F86894BB24B4F887
:1003B000C12C0F2EF0E3DF2EF02DE12CF12C00E00C
:1003C00010E029E730E040E250E562E070E080E0D4
:1003D00090E0D4DE0F900F90E5C11F928FE18F93D4
:1003E0000F2EF3E28F2E912CF02D6894AA24A3F8FF
:1003F0006894BB24B4F8C12C0F2EF8E3DF2EF02D47
:10040000E12CF12C00E010E029E731E040E250E57A
:1004100062E070E080E090E0B1DE0F900F90C2C12A
:100420001F928FE18F930F2EF3E28F2E912CF02DE0
:100430006894AA24A3F86894BB24B4F8C12C6894E7
:10044000DD24D6F8E12CF12C00E010E029E732E0C1
:1004500040E250E562E070E080E090E08FDE0F90D7
:100460000F90A0C11F928FE18F930F2EF3E28F2E7A
:10047000912CF02D6894AA24A3F86894BB24B4F8B6
:10048000C12C0F2EF8E4DF2EF02DE12CF12C00E032
:1004900010E029E733E040E250E562E070E080E000
:1004A00090E06CDE0F900F907DC11F928FE18F93D3
:1004B0000F2EF3E28F2E912CF02D6894AA24A3F82E
:1004C0006894BB24B4F8C12C0F2EF0E5DF2EF02D7C
:1004D000E12CF12C00E010E029E734E040E250E5A7
:1004E00062E070E080E090E049DE0F900F905AC12A
:1004F0001F928FE18F930F2EF3E28F2E912CF02D10
:100500006894AA24A3F86894BB24B4F8C12C0F2ED5
:10051000F8E5DF2EF02DE12CF12C00E010E029E7CA
:1005200035E040E250E562E070E080E090E026DEF9
:100530000F900F9037C11F928FE18F930F2EF3E230
:100540008F2E912CF02D6894AA24A3F86894BB24D4
:10055000B4F8C12C0F2EF0E6DF2EF02DE12CF12C9B
:1005600000E010E029E736E040E250E562E070E0AC
:1005700080E090E003DE0F900F9014C11F928FE196
:100580008F930F2EF3E28F2E912CF02D6894AA24D6
:10059000A3F86894BB24B4F8C12C0F2EF8E6DF2E24
:1005A000F02DE12CF12C00E010E029E737E040E2EB
:1005B00050E562E070E080E090E0E0DD0F900F90A9
:1005C000F1C01F928FE18F930F2EF3E28F2E912CAB
:1005D000F02D6894AA24A3F86894BB24B4F8C12C25
:1005E0000F2EF0E7DF2EF02DE12CF12C00E010E0D3
:1005F00029E738E040E250E562E070E080E090E01A
:10060000BDDD0F900F90CEC01F928FE18F930F2E04
:10061000F3E28F2E912CF02D6894AA24A3F868940D
:10062000BB24B4F8C12C0F2EF8E7DF2EF02DE12CFF
:10063000F12C00E010E029E739E040E250E562E00B
:1006400070E080E090E09ADD0F900F90ABC01F92B9
:100650008FE18F930F2EF3E28F2E912CF02D689463
:10066000AA24A3F86894BB24B4F8C12C0F2EF0E69A
:10067000DF2EF02DE12CF12C00E010E029E73AE02C
:1006800040E250E562E070E080E090E077DD0F90BE
:100690000F9088C01F928FE18F930F2EF3E28F2E61
:1006A000912CF02D6894AA24A3F86894BB24B4F884
:1006B000C12C6894DD24D3F8E12CF12C00E010E08B
:1006C00029E73BE040E250E562E070E080E090E046
:1006D00055DD0F900F9066C01F928FE18F930F2E04
:1006E000F3E28F2E912CF02D6894AA24A3F868943D
:1006F000BB24B4F8C12C6894DD24D4F8E12CF12C8F
:1007000000E010E029E73CE040E250E562E070E004
:1007100080E090E033DD0F900F9044C01F928FE196
:100720008F930F2EF3E28F2E912CF02D6894AA2434
:10073000A3F86894BB24B4F8C12C0F2EF8E1DF2E87
:10074000F02DE12CF12C00E010E029E73DE040E243
:1007500050E562E070E080E090E010DD0F900F90D7
:1007600021C01F928FE18F930F2EF3E28F2E912CD9
:10077000F02D6894AA24A3F86894BB24B4F8C12C83
:100780006894DD24D5F8E12CF12C00E010E029E795
:100790003EE040E250E562E070E080E090E0EEDCB8
:1007A0000F900F901F910F91FF90EF90DF90CF90DF
:1007B000BF90AF909F908F9008958F929F92AF922D
:1007C000BF92CF92DF92EF92FF920F931F938130EF
:1007D00009F061C0611123C01F928FE18F930F2E2A
:1007E000F3E28F2E912CF02D6894AA24A3F868943C
:1007F000BB24B4F8C12C0F2EF0E6DF2EF02DE12C37
:10080000F12C00E010E029E536E040E250E562E03E
:1008100070E080E090E0B2DC0F900F9061C061303A
:1008200011F51F928FE18F930F2EF3E28F2E912CF3
:10083000F02D6894AA24A3F86894BB24B4F8C12CC2
:100840006894DD24D5F8E12CF12C00E010E021E5DE
:1008500036E040E250E562E070E080E090E08EDC5F
:100860000F900F903DC0623059F4809166008E3138
:1008700018F48F5F809366008091660077DD30C04A
:1008800080916600813118F08150809366008091DC
:1008900066006CDD25C0811122C0623050F420E179
:1008A00030E040E150E06AE075EF80E09FE7DDDC9A
:1008B00017C0623051F420E130E040E150E068E5DB
:1008C00077EA80E09FE7D1DC0BC020E130E040E137
:1008D00050E06BE574EA80E09FE7C7DC01C00000F0
:1008E0001F910F91FF90EF90DF90CF90BF90AF904E
:1008F0009F908F9008951F920F920FB60F92112420
:100900008F939F93AF93BF9380916C0090916D00F4
:10091000A0916E00B0916F000196A11DB11D809352
:100920006C0090936D00A0936E00B0936F00BF9128
:10093000AF919F918F910F900FBE0F901F901895C0
:1009400085B78F7B85BF87B387BB88B3846088BB3F
:1009500012BE1ABC13BE8AB580648ABD8AB5826095
:100960008ABD83B7816083BF1FBC80B7866080BFAC
:10097000F89489B7846089BF7894812C912C5401B4
:10098000412C512C3201C12CD12C760136B332FDD1
:1009900002C020E001C021E031FB882780F9C82F88
:1009A00080E0D82F8091630090E0C817D90759F0F4
:1009B000C0906C00D0906D00E0906E00F0906F00E1
:1009C000109260002BC033FB002700F910E08091EB
:1009D000640090E00817190759F040906C0050909F
:1009E0006D0060906E0070906F001092610016C0F4
:1009F00034FB222420F8312C8091650090E02816E9
:100A0000390659F080906C0090906D00A0906E00B7
:100A1000B0906F001092620001C0000040916C0025
:100A200050916D0060916E0070916F00DB01CA0102
:100A30008C199D09AE09BF09CD97A105B10538F004
:100A400080916000811103C081E080936900DB0127
:100A5000CA0184199509A609B709CD97A105B10561
:100A600038F080916100811103C081E080936A00B9
:100A7000481959096A097B094D335105610571050A
:100A800038F080916200811103C081E080936B0097
:100A9000809169008130B1F480916800811107C0B4
:100AA00060E0822F8ADE81E08093680005C061E00B
:100AB000822F83DE109268001092690081E080939B
:100AC000600064CF80916A00813049F463E0822F36
:100AD00074DE10926A0081E08093610057CF8091AC
:100AE0006B00813049F462E0822F67DE10926B0068
:100AF00081E0809362004ACF000048CF97FB10F856
:100B0000169400080F93083098F00850232F342FC4
:100B1000452F562F672F782F892F902DF4CF0594CE
:100B20009795879577956795579547953795279525
:100B30000A95AAF70F9108950024A7FD00942A179B
:100B40003005400550056005700580059005089545
:040B5000F894FFCF47
:080B540001010101010116007D
:00000001FF
